{
  "_format": "hh-sol-artifact-1",
  "contractName": "RaptorExchange",
  "sourceName": "contracts/RaptorExchange.sol",
  "abi": [
    {
      "inputs": [
        {
          "internalType": "address",
          "name": "_RATAddress",
          "type": "address"
        }
      ],
      "stateMutability": "nonpayable",
      "type": "constructor"
    },
    {
      "inputs": [],
      "name": "RATInterface",
      "outputs": [
        {
          "internalType": "contract ERC20",
          "name": "",
          "type": "address"
        }
      ],
      "stateMutability": "view",
      "type": "function"
    },
    {
      "inputs": [
        {
          "internalType": "address",
          "name": "",
          "type": "address"
        }
      ],
      "name": "names",
      "outputs": [
        {
          "internalType": "bytes32",
          "name": "",
          "type": "bytes32"
        }
      ],
      "stateMutability": "view",
      "type": "function"
    },
    {
      "inputs": [
        {
          "internalType": "uint256",
          "name": "_amount",
          "type": "uint256"
        },
        {
          "internalType": "bytes32",
          "name": "_name",
          "type": "bytes32"
        }
      ],
      "name": "stake",
      "outputs": [],
      "stateMutability": "nonpayable",
      "type": "function"
    },
    {
      "inputs": [
        {
          "internalType": "address",
          "name": "",
          "type": "address"
        }
      ],
      "name": "stakers",
      "outputs": [
        {
          "internalType": "uint256",
          "name": "",
          "type": "uint256"
        }
      ],
      "stateMutability": "view",
      "type": "function"
    },
    {
      "inputs": [
        {
          "internalType": "uint256",
          "name": "_amount",
          "type": "uint256"
        }
      ],
      "name": "withdrawStake",
      "outputs": [],
      "stateMutability": "nonpayable",
      "type": "function"
    }
  ],
  "bytecode": "0x608060405234801561001057600080fd5b506040516109323803806109328339818101604052810190610032919061008d565b806000806101000a81548173ffffffffffffffffffffffffffffffffffffffff021916908373ffffffffffffffffffffffffffffffffffffffff160217905550506100ff565b600081519050610087816100e8565b92915050565b60006020828403121561009f57600080fd5b60006100ad84828501610078565b91505092915050565b60006100c1826100c8565b9050919050565b600073ffffffffffffffffffffffffffffffffffffffff82169050919050565b6100f1816100b6565b81146100fc57600080fd5b50565b6108248061010e6000396000f3fe608060405234801561001057600080fd5b50600436106100575760003560e01c806325d5971f1461005c5780635cf3d34614610078578063780b64a8146100a857806383c592cf146100c65780639168ae72146100e2575b600080fd5b61007660048036038101906100719190610511565b610112565b005b610092600480360381019061008d91906104bf565b6102c9565b60405161009f9190610612565b60405180910390f35b6100b06102e1565b6040516100bd919061062d565b60405180910390f35b6100e060048036038101906100db919061053a565b610305565b005b6100fc60048036038101906100f791906104bf565b610453565b6040516101099190610648565b60405180910390f35b60008054906101000a900473ffffffffffffffffffffffffffffffffffffffff1673ffffffffffffffffffffffffffffffffffffffff1663095ea7b330836040518363ffffffff1660e01b815260040161016d9291906105e9565b602060405180830381600087803b15801561018757600080fd5b505af115801561019b573d6000803e3d6000fd5b505050506040513d601f19601f820116820180604052508101906101bf91906104e8565b5060008054906101000a900473ffffffffffffffffffffffffffffffffffffffff1673ffffffffffffffffffffffffffffffffffffffff166323b872dd3033846040518463ffffffff1660e01b815260040161021d939291906105b2565b602060405180830381600087803b15801561023757600080fd5b505af115801561024b573d6000803e3d6000fd5b505050506040513d601f19601f8201168201806040525081019061026f91906104e8565b5080600160003373ffffffffffffffffffffffffffffffffffffffff1673ffffffffffffffffffffffffffffffffffffffff16815260200190815260200160002060008282546102bf91906106b9565b9250508190555050565b60026020528060005260406000206000915090505481565b60008054906101000a900473ffffffffffffffffffffffffffffffffffffffff1681565b60008054906101000a900473ffffffffffffffffffffffffffffffffffffffff1673ffffffffffffffffffffffffffffffffffffffff166323b872dd3330856040518463ffffffff1660e01b8152600401610362939291906105b2565b602060405180830381600087803b15801561037c57600080fd5b505af1158015610390573d6000803e3d6000fd5b505050506040513d601f19601f820116820180604052508101906103b491906104e8565b5081600160003373ffffffffffffffffffffffffffffffffffffffff1673ffffffffffffffffffffffffffffffffffffffff16815260200190815260200160002060008282546104049190610663565b9250508190555080600260003373ffffffffffffffffffffffffffffffffffffffff1673ffffffffffffffffffffffffffffffffffffffff168152602001908152602001600020819055505050565b60016020528060005260406000206000915090505481565b60008135905061047a81610792565b92915050565b60008151905061048f816107a9565b92915050565b6000813590506104a4816107c0565b92915050565b6000813590506104b9816107d7565b92915050565b6000602082840312156104d157600080fd5b60006104df8482850161046b565b91505092915050565b6000602082840312156104fa57600080fd5b600061050884828501610480565b91505092915050565b60006020828403121561052357600080fd5b6000610531848285016104aa565b91505092915050565b6000806040838503121561054d57600080fd5b600061055b858286016104aa565b925050602061056c85828601610495565b9150509250929050565b61057f816106ed565b82525050565b61058e8161070b565b82525050565b61059d8161073f565b82525050565b6105ac81610735565b82525050565b60006060820190506105c76000830186610576565b6105d46020830185610576565b6105e160408301846105a3565b949350505050565b60006040820190506105fe6000830185610576565b61060b60208301846105a3565b9392505050565b60006020820190506106276000830184610585565b92915050565b60006020820190506106426000830184610594565b92915050565b600060208201905061065d60008301846105a3565b92915050565b600061066e82610735565b915061067983610735565b9250827fffffffffffffffffffffffffffffffffffffffffffffffffffffffffffffffff038211156106ae576106ad610763565b5b828201905092915050565b60006106c482610735565b91506106cf83610735565b9250828210156106e2576106e1610763565b5b828203905092915050565b60006106f882610715565b9050919050565b60008115159050919050565b6000819050919050565b600073ffffffffffffffffffffffffffffffffffffffff82169050919050565b6000819050919050565b600061074a82610751565b9050919050565b600061075c82610715565b9050919050565b7f4e487b7100000000000000000000000000000000000000000000000000000000600052601160045260246000fd5b61079b816106ed565b81146107a657600080fd5b50565b6107b2816106ff565b81146107bd57600080fd5b50565b6107c98161070b565b81146107d457600080fd5b50565b6107e081610735565b81146107eb57600080fd5b5056fea2646970667358221220d15c6f0b835378ed8cad64992d334fbcf3621a5489f3070585f82df075c6e7c764736f6c63430008000033",
  "linkReferences": {},
  "deployedLinkReferences": {}
}